{
  "_format": "hh-sol-artifact-1",
  "contractName": "MyNFT",
  "sourceName": "contracts/MyNft.sol",
  "abi": [
    {
      "inputs": [],
      "stateMutability": "nonpayable",
      "type": "constructor"
    },
    {
      "anonymous": false,
      "inputs": [
        {
          "indexed": true,
          "internalType": "address",
          "name": "owner",
          "type": "address"
        },
        {
          "indexed": true,
          "internalType": "address",
          "name": "approved",
          "type": "address"
        },
        {
          "indexed": true,
          "internalType": "uint256",
          "name": "tokenId",
          "type": "uint256"
        }
      ],
      "name": "Approval",
      "type": "event"
    },
    {
      "anonymous": false,
      "inputs": [
        {
          "indexed": true,
          "internalType": "address",
          "name": "owner",
          "type": "address"
        },
        {
          "indexed": true,
          "internalType": "address",
          "name": "operator",
          "type": "address"
        },
        {
          "indexed": false,
          "internalType": "bool",
          "name": "approved",
          "type": "bool"
        }
      ],
      "name": "ApprovalForAll",
      "type": "event"
    },
    {
      "anonymous": false,
      "inputs": [
        {
          "indexed": true,
          "internalType": "address",
          "name": "previousOwner",
          "type": "address"
        },
        {
          "indexed": true,
          "internalType": "address",
          "name": "newOwner",
          "type": "address"
        }
      ],
      "name": "OwnershipTransferred",
      "type": "event"
    },
    {
      "anonymous": false,
      "inputs": [
        {
          "indexed": true,
          "internalType": "address",
          "name": "from",
          "type": "address"
        },
        {
          "indexed": true,
          "internalType": "address",
          "name": "to",
          "type": "address"
        },
        {
          "indexed": true,
          "internalType": "uint256",
          "name": "tokenId",
          "type": "uint256"
        }
      ],
      "name": "Transfer",
      "type": "event"
    },
    {
      "inputs": [
        {
          "internalType": "address",
          "name": "to",
          "type": "address"
        },
        {
          "internalType": "uint256",
          "name": "tokenId",
          "type": "uint256"
        }
      ],
      "name": "approve",
      "outputs": [],
      "stateMutability": "nonpayable",
      "type": "function"
    },
    {
      "inputs": [
        {
          "internalType": "address",
          "name": "owner",
          "type": "address"
        }
      ],
      "name": "balanceOf",
      "outputs": [
        {
          "internalType": "uint256",
          "name": "",
          "type": "uint256"
        }
      ],
      "stateMutability": "view",
      "type": "function"
    },
    {
      "inputs": [
        {
          "internalType": "uint256",
          "name": "tokenId",
          "type": "uint256"
        }
      ],
      "name": "getApproved",
      "outputs": [
        {
          "internalType": "address",
          "name": "",
          "type": "address"
        }
      ],
      "stateMutability": "view",
      "type": "function"
    },
    {
      "inputs": [],
      "name": "getTokenId",
      "outputs": [
        {
          "internalType": "uint256",
          "name": "",
          "type": "uint256"
        }
      ],
      "stateMutability": "view",
      "type": "function"
    },
    {
      "inputs": [
        {
          "internalType": "address",
          "name": "owner",
          "type": "address"
        },
        {
          "internalType": "address",
          "name": "operator",
          "type": "address"
        }
      ],
      "name": "isApprovedForAll",
      "outputs": [
        {
          "internalType": "bool",
          "name": "",
          "type": "bool"
        }
      ],
      "stateMutability": "view",
      "type": "function"
    },
    {
      "inputs": [
        {
          "internalType": "string",
          "name": "uri",
          "type": "string"
        }
      ],
      "name": "mint",
      "outputs": [
        {
          "internalType": "uint256",
          "name": "",
          "type": "uint256"
        }
      ],
      "stateMutability": "nonpayable",
      "type": "function"
    },
    {
      "inputs": [],
      "name": "name",
      "outputs": [
        {
          "internalType": "string",
          "name": "",
          "type": "string"
        }
      ],
      "stateMutability": "view",
      "type": "function"
    },
    {
      "inputs": [],
      "name": "owner",
      "outputs": [
        {
          "internalType": "address",
          "name": "",
          "type": "address"
        }
      ],
      "stateMutability": "view",
      "type": "function"
    },
    {
      "inputs": [
        {
          "internalType": "uint256",
          "name": "tokenId",
          "type": "uint256"
        }
      ],
      "name": "ownerOf",
      "outputs": [
        {
          "internalType": "address",
          "name": "",
          "type": "address"
        }
      ],
      "stateMutability": "view",
      "type": "function"
    },
    {
      "inputs": [],
      "name": "renounceOwnership",
      "outputs": [],
      "stateMutability": "nonpayable",
      "type": "function"
    },
    {
      "inputs": [
        {
          "internalType": "address",
          "name": "from",
          "type": "address"
        },
        {
          "internalType": "address",
          "name": "to",
          "type": "address"
        },
        {
          "internalType": "uint256",
          "name": "tokenId",
          "type": "uint256"
        }
      ],
      "name": "safeTransferFrom",
      "outputs": [],
      "stateMutability": "nonpayable",
      "type": "function"
    },
    {
      "inputs": [
        {
          "internalType": "address",
          "name": "from",
          "type": "address"
        },
        {
          "internalType": "address",
          "name": "to",
          "type": "address"
        },
        {
          "internalType": "uint256",
          "name": "tokenId",
          "type": "uint256"
        },
        {
          "internalType": "bytes",
          "name": "_data",
          "type": "bytes"
        }
      ],
      "name": "safeTransferFrom",
      "outputs": [],
      "stateMutability": "nonpayable",
      "type": "function"
    },
    {
      "inputs": [
        {
          "internalType": "address",
          "name": "operator",
          "type": "address"
        },
        {
          "internalType": "bool",
          "name": "approved",
          "type": "bool"
        }
      ],
      "name": "setApprovalForAll",
      "outputs": [],
      "stateMutability": "nonpayable",
      "type": "function"
    },
    {
      "inputs": [
        {
          "internalType": "bytes4",
          "name": "interfaceId",
          "type": "bytes4"
        }
      ],
      "name": "supportsInterface",
      "outputs": [
        {
          "internalType": "bool",
          "name": "",
          "type": "bool"
        }
      ],
      "stateMutability": "view",
      "type": "function"
    },
    {
      "inputs": [],
      "name": "symbol",
      "outputs": [
        {
          "internalType": "string",
          "name": "",
          "type": "string"
        }
      ],
      "stateMutability": "view",
      "type": "function"
    },
    {
      "inputs": [
        {
          "internalType": "uint256",
          "name": "index",
          "type": "uint256"
        }
      ],
      "name": "tokenByIndex",
      "outputs": [
        {
          "internalType": "uint256",
          "name": "",
          "type": "uint256"
        }
      ],
      "stateMutability": "view",
      "type": "function"
    },
    {
      "inputs": [
        {
          "internalType": "address",
          "name": "owner",
          "type": "address"
        },
        {
          "internalType": "uint256",
          "name": "index",
          "type": "uint256"
        }
      ],
      "name": "tokenOfOwnerByIndex",
      "outputs": [
        {
          "internalType": "uint256",
          "name": "",
          "type": "uint256"
        }
      ],
      "stateMutability": "view",
      "type": "function"
    },
    {
      "inputs": [
        {
          "internalType": "uint256",
          "name": "tokenId",
          "type": "uint256"
        }
      ],
      "name": "tokenURI",
      "outputs": [
        {
          "internalType": "string",
          "name": "",
          "type": "string"
        }
      ],
      "stateMutability": "view",
      "type": "function"
    },
    {
      "inputs": [],
      "name": "totalSupply",
      "outputs": [
        {
          "internalType": "uint256",
          "name": "",
          "type": "uint256"
        }
      ],
      "stateMutability": "view",
      "type": "function"
    },
    {
      "inputs": [
        {
          "internalType": "address",
          "name": "from",
          "type": "address"
        },
        {
          "internalType": "address",
          "name": "to",
          "type": "address"
        },
        {
          "internalType": "uint256",
          "name": "tokenId",
          "type": "uint256"
        }
      ],
      "name": "transferFrom",
      "outputs": [],
      "stateMutability": "nonpayable",
      "type": "function"
    },
    {
      "inputs": [
        {
          "internalType": "address",
          "name": "newOwner",
          "type": "address"
        }
      ],
      "name": "transferOwnership",
      "outputs": [],
      "stateMutability": "nonpayable",
      "type": "function"
    }
  ],
  "bytecode": "0x60806040526000600d553480156200001657600080fd5b506040518060400160405280600b81526020017f436f6f6c657374204e46540000000000000000000000000000000000000000008152506040518060400160405280600481526020017f434e46540000000000000000000000000000000000000000000000000000000081525081600090805190602001906200009b929190620001ab565b508060019080519060200190620000b4929190620001ab565b505050620000d7620000cb620000dd60201b60201c565b620000e560201b60201c565b620002c0565b600033905090565b6000600660009054906101000a900473ffffffffffffffffffffffffffffffffffffffff16905081600660006101000a81548173ffffffffffffffffffffffffffffffffffffffff021916908373ffffffffffffffffffffffffffffffffffffffff1602179055508173ffffffffffffffffffffffffffffffffffffffff168173ffffffffffffffffffffffffffffffffffffffff167f8be0079c531659141344cd1fd0a4f28419497f9722a3daafe3b4186f6b6457e060405160405180910390a35050565b828054620001b9906200025b565b90600052602060002090601f016020900481019282620001dd576000855562000229565b82601f10620001f857805160ff191683800117855562000229565b8280016001018555821562000229579182015b82811115620002285782518255916020019190600101906200020b565b5b5090506200023891906200023c565b5090565b5b80821115620002575760008160009055506001016200023d565b5090565b600060028204905060018216806200027457607f821691505b602082108114156200028b576200028a62000291565b5b50919050565b7f4e487b7100000000000000000000000000000000000000000000000000000000600052602260045260246000fd5b6137b380620002d06000396000f3fe608060405234801561001057600080fd5b50600436106101375760003560e01c80636352211e116100b8578063a22cb4651161007c578063a22cb46514610350578063b88d4fde1461036c578063c87b56dd14610388578063d85d3d27146103b8578063e985e9c5146103e8578063f2fde38b1461041857610137565b80636352211e146102aa57806370a08231146102da578063715018a61461030a5780638da5cb5b1461031457806395d89b411461033257610137565b806318160ddd116100ff57806318160ddd146101f457806323b872dd146102125780632f745c591461022e57806342842e0e1461025e5780634f6ccce71461027a57610137565b8063010a38f51461013c57806301ffc9a71461015a57806306fdde031461018a578063081812fc146101a8578063095ea7b3146101d8575b600080fd5b610144610434565b6040516101519190612d8d565b60405180910390f35b610174600480360381019061016f91906125fd565b61043e565b6040516101819190612ad0565b60405180910390f35b610192610450565b60405161019f9190612aeb565b60405180910390f35b6101c260048036038101906101bd9190612690565b6104e2565b6040516101cf9190612a69565b60405180910390f35b6101f260048036038101906101ed91906125c1565b610567565b005b6101fc61067f565b6040516102099190612d8d565b60405180910390f35b61022c600480360381019061022791906124bb565b61068c565b005b610248600480360381019061024391906125c1565b6106ec565b6040516102559190612d8d565b60405180910390f35b610278600480360381019061027391906124bb565b610791565b005b610294600480360381019061028f9190612690565b6107b1565b6040516102a19190612d8d565b60405180910390f35b6102c460048036038101906102bf9190612690565b610848565b6040516102d19190612a69565b60405180910390f35b6102f460048036038101906102ef9190612456565b6108fa565b6040516103019190612d8d565b60405180910390f35b6103126109b2565b005b61031c610a3a565b6040516103299190612a69565b60405180910390f35b61033a610a64565b6040516103479190612aeb565b60405180910390f35b61036a60048036038101906103659190612585565b610af6565b005b6103866004803603810190610381919061250a565b610b0c565b005b6103a2600480360381019061039d9190612690565b610b6e565b6040516103af9190612aeb565b60405180910390f35b6103d260048036038101906103cd919061264f565b610b80565b6040516103df9190612d8d565b60405180910390f35b61040260048036038101906103fd919061247f565b610bbc565b60405161040f9190612ad0565b60405180910390f35b610432600480360381019061042d9190612456565b610c50565b005b6000600d54905090565b600061044982610d48565b9050919050565b60606000805461045f90612fe3565b80601f016020809104026020016040519081016040528092919081815260200182805461048b90612fe3565b80156104d85780601f106104ad576101008083540402835291602001916104d8565b820191906000526020600020905b8154815290600101906020018083116104bb57829003601f168201915b5050505050905090565b60006104ed82610dc2565b61052c576040517f08c379a000000000000000000000000000000000000000000000000000000000815260040161052390612ccd565b60405180910390fd5b6004600083815260200190815260200160002060009054906101000a900473ffffffffffffffffffffffffffffffffffffffff169050919050565b600061057282610848565b90508073ffffffffffffffffffffffffffffffffffffffff168373ffffffffffffffffffffffffffffffffffffffff1614156105e3576040517f08c379a00000000000000000000000000000000000000000000000000000000081526004016105da90612d2d565b60405180910390fd5b8073ffffffffffffffffffffffffffffffffffffffff16610602610e2e565b73ffffffffffffffffffffffffffffffffffffffff16148061063157506106308161062b610e2e565b610bbc565b5b610670576040517f08c379a000000000000000000000000000000000000000000000000000000000815260040161066790612c0d565b60405180910390fd5b61067a8383610e36565b505050565b6000600980549050905090565b61069d610697610e2e565b82610eef565b6106dc576040517f08c379a00000000000000000000000000000000000000000000000000000000081526004016106d390612d4d565b60405180910390fd5b6106e7838383610fcd565b505050565b60006106f7836108fa565b8210610738576040517f08c379a000000000000000000000000000000000000000000000000000000000815260040161072f90612b0d565b60405180910390fd5b600760008473ffffffffffffffffffffffffffffffffffffffff1673ffffffffffffffffffffffffffffffffffffffff168152602001908152602001600020600083815260200190815260200160002054905092915050565b6107ac83838360405180602001604052806000815250610b0c565b505050565b60006107bb61067f565b82106107fc576040517f08c379a00000000000000000000000000000000000000000000000000000000081526004016107f390612d6d565b60405180910390fd5b60098281548110610836577f4e487b7100000000000000000000000000000000000000000000000000000000600052603260045260246000fd5b90600052602060002001549050919050565b6000806002600084815260200190815260200160002060009054906101000a900473ffffffffffffffffffffffffffffffffffffffff169050600073ffffffffffffffffffffffffffffffffffffffff168173ffffffffffffffffffffffffffffffffffffffff1614156108f1576040517f08c379a00000000000000000000000000000000000000000000000000000000081526004016108e890612c4d565b60405180910390fd5b80915050919050565b60008073ffffffffffffffffffffffffffffffffffffffff168273ffffffffffffffffffffffffffffffffffffffff16141561096b576040517f08c379a000000000000000000000000000000000000000000000000000000000815260040161096290612c2d565b60405180910390fd5b600360008373ffffffffffffffffffffffffffffffffffffffff1673ffffffffffffffffffffffffffffffffffffffff168152602001908152602001600020549050919050565b6109ba610e2e565b73ffffffffffffffffffffffffffffffffffffffff166109d8610a3a565b73ffffffffffffffffffffffffffffffffffffffff1614610a2e576040517f08c379a0000000000000000000000000000000000000000000000000000000008152600401610a2590612ced565b60405180910390fd5b610a386000611234565b565b6000600660009054906101000a900473ffffffffffffffffffffffffffffffffffffffff16905090565b606060018054610a7390612fe3565b80601f0160208091040260200160405190810160405280929190818152602001828054610a9f90612fe3565b8015610aec5780601f10610ac157610100808354040283529160200191610aec565b820191906000526020600020905b815481529060010190602001808311610acf57829003601f168201915b5050505050905090565b610b08610b01610e2e565b83836112fa565b5050565b610b1d610b17610e2e565b83610eef565b610b5c576040517f08c379a0000000000000000000000000000000000000000000000000000000008152600401610b5390612d4d565b60405180910390fd5b610b6884848484611467565b50505050565b6060610b79826114c3565b9050919050565b6000600d6000815480929190610b9590613046565b9190505550610ba633600d54611615565b610bb2600d54836117ef565b600d549050919050565b6000600560008473ffffffffffffffffffffffffffffffffffffffff1673ffffffffffffffffffffffffffffffffffffffff16815260200190815260200160002060008373ffffffffffffffffffffffffffffffffffffffff1673ffffffffffffffffffffffffffffffffffffffff16815260200190815260200160002060009054906101000a900460ff16905092915050565b610c58610e2e565b73ffffffffffffffffffffffffffffffffffffffff16610c76610a3a565b73ffffffffffffffffffffffffffffffffffffffff1614610ccc576040517f08c379a0000000000000000000000000000000000000000000000000000000008152600401610cc390612ced565b60405180910390fd5b600073ffffffffffffffffffffffffffffffffffffffff168173ffffffffffffffffffffffffffffffffffffffff161415610d3c576040517f08c379a0000000000000000000000000000000000000000000000000000000008152600401610d3390612b4d565b60405180910390fd5b610d4581611234565b50565b60007f780e9d63000000000000000000000000000000000000000000000000000000007bffffffffffffffffffffffffffffffffffffffffffffffffffffffff1916827bffffffffffffffffffffffffffffffffffffffffffffffffffffffff19161480610dbb5750610dba82611863565b5b9050919050565b60008073ffffffffffffffffffffffffffffffffffffffff166002600084815260200190815260200160002060009054906101000a900473ffffffffffffffffffffffffffffffffffffffff1673ffffffffffffffffffffffffffffffffffffffff1614159050919050565b600033905090565b816004600083815260200190815260200160002060006101000a81548173ffffffffffffffffffffffffffffffffffffffff021916908373ffffffffffffffffffffffffffffffffffffffff160217905550808273ffffffffffffffffffffffffffffffffffffffff16610ea983610848565b73ffffffffffffffffffffffffffffffffffffffff167f8c5be1e5ebec7d5bd14f71427d1e84f3dd0314c0f7b2291e5b200ac8c7c3b92560405160405180910390a45050565b6000610efa82610dc2565b610f39576040517f08c379a0000000000000000000000000000000000000000000000000000000008152600401610f3090612bed565b60405180910390fd5b6000610f4483610848565b90508073ffffffffffffffffffffffffffffffffffffffff168473ffffffffffffffffffffffffffffffffffffffff161480610fb357508373ffffffffffffffffffffffffffffffffffffffff16610f9b846104e2565b73ffffffffffffffffffffffffffffffffffffffff16145b80610fc45750610fc38185610bbc565b5b91505092915050565b8273ffffffffffffffffffffffffffffffffffffffff16610fed82610848565b73ffffffffffffffffffffffffffffffffffffffff1614611043576040517f08c379a000000000000000000000000000000000000000000000000000000000815260040161103a90612b6d565b60405180910390fd5b600073ffffffffffffffffffffffffffffffffffffffff168273ffffffffffffffffffffffffffffffffffffffff1614156110b3576040517f08c379a00000000000000000000000000000000000000000000000000000000081526004016110aa90612bad565b60405180910390fd5b6110be838383611945565b6110c9600082610e36565b6001600360008573ffffffffffffffffffffffffffffffffffffffff1673ffffffffffffffffffffffffffffffffffffffff16815260200190815260200160002060008282546111199190612ef9565b925050819055506001600360008473ffffffffffffffffffffffffffffffffffffffff1673ffffffffffffffffffffffffffffffffffffffff16815260200190815260200160002060008282546111709190612e72565b92505081905550816002600083815260200190815260200160002060006101000a81548173ffffffffffffffffffffffffffffffffffffffff021916908373ffffffffffffffffffffffffffffffffffffffff160217905550808273ffffffffffffffffffffffffffffffffffffffff168473ffffffffffffffffffffffffffffffffffffffff167fddf252ad1be2c89b69c2b068fc378daa952ba7f163c4a11628f55a4df523b3ef60405160405180910390a461122f838383611955565b505050565b6000600660009054906101000a900473ffffffffffffffffffffffffffffffffffffffff16905081600660006101000a81548173ffffffffffffffffffffffffffffffffffffffff021916908373ffffffffffffffffffffffffffffffffffffffff1602179055508173ffffffffffffffffffffffffffffffffffffffff168173ffffffffffffffffffffffffffffffffffffffff167f8be0079c531659141344cd1fd0a4f28419497f9722a3daafe3b4186f6b6457e060405160405180910390a35050565b8173ffffffffffffffffffffffffffffffffffffffff168373ffffffffffffffffffffffffffffffffffffffff161415611369576040517f08c379a000000000000000000000000000000000000000000000000000000000815260040161136090612bcd565b60405180910390fd5b80600560008573ffffffffffffffffffffffffffffffffffffffff1673ffffffffffffffffffffffffffffffffffffffff16815260200190815260200160002060008473ffffffffffffffffffffffffffffffffffffffff1673ffffffffffffffffffffffffffffffffffffffff16815260200190815260200160002060006101000a81548160ff0219169083151502179055508173ffffffffffffffffffffffffffffffffffffffff168373ffffffffffffffffffffffffffffffffffffffff167f17307eab39ab6107e8899845ad3d59bd9653f200f220920489ca2b5937696c318360405161145a9190612ad0565b60405180910390a3505050565b611472848484610fcd565b61147e8484848461195a565b6114bd576040517f08c379a00000000000000000000000000000000000000000000000000000000081526004016114b490612b2d565b60405180910390fd5b50505050565b60606114ce82610dc2565b61150d576040517f08c379a000000000000000000000000000000000000000000000000000000000815260040161150490612cad565b60405180910390fd5b6000600b6000848152602001908152602001600020805461152d90612fe3565b80601f016020809104026020016040519081016040528092919081815260200182805461155990612fe3565b80156115a65780601f1061157b576101008083540402835291602001916115a6565b820191906000526020600020905b81548152906001019060200180831161158957829003601f168201915b5050505050905060006115b7611af1565b90506000815114156115cd578192505050611610565b6000825111156116025780826040516020016115ea929190612a45565b60405160208183030381529060405292505050611610565b61160b84611b08565b925050505b919050565b600073ffffffffffffffffffffffffffffffffffffffff168273ffffffffffffffffffffffffffffffffffffffff161415611685576040517f08c379a000000000000000000000000000000000000000000000000000000000815260040161167c90612c8d565b60405180910390fd5b61168e81610dc2565b156116ce576040517f08c379a00000000000000000000000000000000000000000000000000000000081526004016116c590612b8d565b60405180910390fd5b6116da60008383611945565b6001600360008473ffffffffffffffffffffffffffffffffffffffff1673ffffffffffffffffffffffffffffffffffffffff168152602001908152602001600020600082825461172a9190612e72565b92505081905550816002600083815260200190815260200160002060006101000a81548173ffffffffffffffffffffffffffffffffffffffff021916908373ffffffffffffffffffffffffffffffffffffffff160217905550808273ffffffffffffffffffffffffffffffffffffffff16600073ffffffffffffffffffffffffffffffffffffffff167fddf252ad1be2c89b69c2b068fc378daa952ba7f163c4a11628f55a4df523b3ef60405160405180910390a46117eb60008383611955565b5050565b6117f882610dc2565b611837576040517f08c379a000000000000000000000000000000000000000000000000000000000815260040161182e90612c6d565b60405180910390fd5b80600b6000848152602001908152602001600020908051906020019061185e92919061227a565b505050565b60007f80ac58cd000000000000000000000000000000000000000000000000000000007bffffffffffffffffffffffffffffffffffffffffffffffffffffffff1916827bffffffffffffffffffffffffffffffffffffffffffffffffffffffff1916148061192e57507f5b5e139f000000000000000000000000000000000000000000000000000000007bffffffffffffffffffffffffffffffffffffffffffffffffffffffff1916827bffffffffffffffffffffffffffffffffffffffffffffffffffffffff1916145b8061193e575061193d82611baf565b5b9050919050565b611950838383611c19565b505050565b505050565b600061197b8473ffffffffffffffffffffffffffffffffffffffff16611d2d565b15611ae4578373ffffffffffffffffffffffffffffffffffffffff1663150b7a026119a4610e2e565b8786866040518563ffffffff1660e01b81526004016119c69493929190612a84565b602060405180830381600087803b1580156119e057600080fd5b505af1925050508015611a1157506040513d601f19601f82011682018060405250810190611a0e9190612626565b60015b611a94573d8060008114611a41576040519150601f19603f3d011682016040523d82523d6000602084013e611a46565b606091505b50600081511415611a8c576040517f08c379a0000000000000000000000000000000000000000000000000000000008152600401611a8390612b2d565b60405180910390fd5b805181602001fd5b63150b7a0260e01b7bffffffffffffffffffffffffffffffffffffffffffffffffffffffff1916817bffffffffffffffffffffffffffffffffffffffffffffffffffffffff191614915050611ae9565b600190505b949350505050565b606060405180602001604052806000815250905090565b6060611b1382610dc2565b611b52576040517f08c379a0000000000000000000000000000000000000000000000000000000008152600401611b4990612d0d565b60405180910390fd5b6000611b5c611af1565b90506000815111611b7c5760405180602001604052806000815250611ba7565b80611b8684611d50565b604051602001611b97929190612a45565b6040516020818303038152906040525b915050919050565b60007f01ffc9a7000000000000000000000000000000000000000000000000000000007bffffffffffffffffffffffffffffffffffffffffffffffffffffffff1916827bffffffffffffffffffffffffffffffffffffffffffffffffffffffff1916149050919050565b611c24838383611efd565b600073ffffffffffffffffffffffffffffffffffffffff168373ffffffffffffffffffffffffffffffffffffffff161415611c6757611c6281611f02565b611ca6565b8173ffffffffffffffffffffffffffffffffffffffff168373ffffffffffffffffffffffffffffffffffffffff1614611ca557611ca48382611f4b565b5b5b600073ffffffffffffffffffffffffffffffffffffffff168273ffffffffffffffffffffffffffffffffffffffff161415611ce957611ce4816120b8565b611d28565b8273ffffffffffffffffffffffffffffffffffffffff168273ffffffffffffffffffffffffffffffffffffffff1614611d2757611d2682826121fb565b5b5b505050565b6000808273ffffffffffffffffffffffffffffffffffffffff163b119050919050565b60606000821415611d98576040518060400160405280600181526020017f30000000000000000000000000000000000000000000000000000000000000008152509050611ef8565b600082905060005b60008214611dca578080611db390613046565b915050600a82611dc39190612ec8565b9150611da0565b60008167ffffffffffffffff811115611e0c577f4e487b7100000000000000000000000000000000000000000000000000000000600052604160045260246000fd5b6040519080825280601f01601f191660200182016040528015611e3e5781602001600182028036833780820191505090505b5090505b60008514611ef157600182611e579190612ef9565b9150600a85611e66919061308f565b6030611e729190612e72565b60f81b818381518110611eae577f4e487b7100000000000000000000000000000000000000000000000000000000600052603260045260246000fd5b60200101907effffffffffffffffffffffffffffffffffffffffffffffffffffffffffffff1916908160001a905350600a85611eea9190612ec8565b9450611e42565b8093505050505b919050565b505050565b600980549050600a600083815260200190815260200160002081905550600981908060018154018082558091505060019003906000526020600020016000909190919091505550565b60006001611f58846108fa565b611f629190612ef9565b9050600060086000848152602001908152602001600020549050818114612047576000600760008673ffffffffffffffffffffffffffffffffffffffff1673ffffffffffffffffffffffffffffffffffffffff168152602001908152602001600020600084815260200190815260200160002054905080600760008773ffffffffffffffffffffffffffffffffffffffff1673ffffffffffffffffffffffffffffffffffffffff168152602001908152602001600020600084815260200190815260200160002081905550816008600083815260200190815260200160002081905550505b6008600084815260200190815260200160002060009055600760008573ffffffffffffffffffffffffffffffffffffffff1673ffffffffffffffffffffffffffffffffffffffff16815260200190815260200160002060008381526020019081526020016000206000905550505050565b600060016009805490506120cc9190612ef9565b90506000600a6000848152602001908152602001600020549050600060098381548110612122577f4e487b7100000000000000000000000000000000000000000000000000000000600052603260045260246000fd5b90600052602060002001549050806009838154811061216a577f4e487b7100000000000000000000000000000000000000000000000000000000600052603260045260246000fd5b906000526020600020018190555081600a600083815260200190815260200160002081905550600a60008581526020019081526020016000206000905560098054806121df577f4e487b7100000000000000000000000000000000000000000000000000000000600052603160045260246000fd5b6001900381819060005260206000200160009055905550505050565b6000612206836108fa565b905081600760008573ffffffffffffffffffffffffffffffffffffffff1673ffffffffffffffffffffffffffffffffffffffff168152602001908152602001600020600083815260200190815260200160002081905550806008600084815260200190815260200160002081905550505050565b82805461228690612fe3565b90600052602060002090601f0160209004810192826122a857600085556122ef565b82601f106122c157805160ff19168380011785556122ef565b828001600101855582156122ef579182015b828111156122ee5782518255916020019190600101906122d3565b5b5090506122fc9190612300565b5090565b5b80821115612319576000816000905550600101612301565b5090565b600061233061232b84612dcd565b612da8565b90508281526020810184848401111561234857600080fd5b612353848285612fa1565b509392505050565b600061236e61236984612dfe565b612da8565b90508281526020810184848401111561238657600080fd5b612391848285612fa1565b509392505050565b6000813590506123a881613721565b92915050565b6000813590506123bd81613738565b92915050565b6000813590506123d28161374f565b92915050565b6000815190506123e78161374f565b92915050565b600082601f8301126123fe57600080fd5b813561240e84826020860161231d565b91505092915050565b600082601f83011261242857600080fd5b813561243884826020860161235b565b91505092915050565b60008135905061245081613766565b92915050565b60006020828403121561246857600080fd5b600061247684828501612399565b91505092915050565b6000806040838503121561249257600080fd5b60006124a085828601612399565b92505060206124b185828601612399565b9150509250929050565b6000806000606084860312156124d057600080fd5b60006124de86828701612399565b93505060206124ef86828701612399565b925050604061250086828701612441565b9150509250925092565b6000806000806080858703121561252057600080fd5b600061252e87828801612399565b945050602061253f87828801612399565b935050604061255087828801612441565b925050606085013567ffffffffffffffff81111561256d57600080fd5b612579878288016123ed565b91505092959194509250565b6000806040838503121561259857600080fd5b60006125a685828601612399565b92505060206125b7858286016123ae565b9150509250929050565b600080604083850312156125d457600080fd5b60006125e285828601612399565b92505060206125f385828601612441565b9150509250929050565b60006020828403121561260f57600080fd5b600061261d848285016123c3565b91505092915050565b60006020828403121561263857600080fd5b6000612646848285016123d8565b91505092915050565b60006020828403121561266157600080fd5b600082013567ffffffffffffffff81111561267b57600080fd5b61268784828501612417565b91505092915050565b6000602082840312156126a257600080fd5b60006126b084828501612441565b91505092915050565b6126c281612f2d565b82525050565b6126d181612f3f565b82525050565b60006126e282612e2f565b6126ec8185612e45565b93506126fc818560208601612fb0565b6127058161317c565b840191505092915050565b600061271b82612e3a565b6127258185612e56565b9350612735818560208601612fb0565b61273e8161317c565b840191505092915050565b600061275482612e3a565b61275e8185612e67565b935061276e818560208601612fb0565b80840191505092915050565b6000612787602b83612e56565b91506127928261318d565b604082019050919050565b60006127aa603283612e56565b91506127b5826131dc565b604082019050919050565b60006127cd602683612e56565b91506127d88261322b565b604082019050919050565b60006127f0602583612e56565b91506127fb8261327a565b604082019050919050565b6000612813601c83612e56565b915061281e826132c9565b602082019050919050565b6000612836602483612e56565b9150612841826132f2565b604082019050919050565b6000612859601983612e56565b915061286482613341565b602082019050919050565b600061287c602c83612e56565b91506128878261336a565b604082019050919050565b600061289f603883612e56565b91506128aa826133b9565b604082019050919050565b60006128c2602a83612e56565b91506128cd82613408565b604082019050919050565b60006128e5602983612e56565b91506128f082613457565b604082019050919050565b6000612908602e83612e56565b9150612913826134a6565b604082019050919050565b600061292b602083612e56565b9150612936826134f5565b602082019050919050565b600061294e603183612e56565b91506129598261351e565b604082019050919050565b6000612971602c83612e56565b915061297c8261356d565b604082019050919050565b6000612994602083612e56565b915061299f826135bc565b602082019050919050565b60006129b7602f83612e56565b91506129c2826135e5565b604082019050919050565b60006129da602183612e56565b91506129e582613634565b604082019050919050565b60006129fd603183612e56565b9150612a0882613683565b604082019050919050565b6000612a20602c83612e56565b9150612a2b826136d2565b604082019050919050565b612a3f81612f97565b82525050565b6000612a518285612749565b9150612a5d8284612749565b91508190509392505050565b6000602082019050612a7e60008301846126b9565b92915050565b6000608082019050612a9960008301876126b9565b612aa660208301866126b9565b612ab36040830185612a36565b8181036060830152612ac581846126d7565b905095945050505050565b6000602082019050612ae560008301846126c8565b92915050565b60006020820190508181036000830152612b058184612710565b905092915050565b60006020820190508181036000830152612b268161277a565b9050919050565b60006020820190508181036000830152612b468161279d565b9050919050565b60006020820190508181036000830152612b66816127c0565b9050919050565b60006020820190508181036000830152612b86816127e3565b9050919050565b60006020820190508181036000830152612ba681612806565b9050919050565b60006020820190508181036000830152612bc681612829565b9050919050565b60006020820190508181036000830152612be68161284c565b9050919050565b60006020820190508181036000830152612c068161286f565b9050919050565b60006020820190508181036000830152612c2681612892565b9050919050565b60006020820190508181036000830152612c46816128b5565b9050919050565b60006020820190508181036000830152612c66816128d8565b9050919050565b60006020820190508181036000830152612c86816128fb565b9050919050565b60006020820190508181036000830152612ca68161291e565b9050919050565b60006020820190508181036000830152612cc681612941565b9050919050565b60006020820190508181036000830152612ce681612964565b9050919050565b60006020820190508181036000830152612d0681612987565b9050919050565b60006020820190508181036000830152612d26816129aa565b9050919050565b60006020820190508181036000830152612d46816129cd565b9050919050565b60006020820190508181036000830152612d66816129f0565b9050919050565b60006020820190508181036000830152612d8681612a13565b9050919050565b6000602082019050612da26000830184612a36565b92915050565b6000612db2612dc3565b9050612dbe8282613015565b919050565b6000604051905090565b600067ffffffffffffffff821115612de857612de761314d565b5b612df18261317c565b9050602081019050919050565b600067ffffffffffffffff821115612e1957612e1861314d565b5b612e228261317c565b9050602081019050919050565b600081519050919050565b600081519050919050565b600082825260208201905092915050565b600082825260208201905092915050565b600081905092915050565b6000612e7d82612f97565b9150612e8883612f97565b9250827fffffffffffffffffffffffffffffffffffffffffffffffffffffffffffffffff03821115612ebd57612ebc6130c0565b5b828201905092915050565b6000612ed382612f97565b9150612ede83612f97565b925082612eee57612eed6130ef565b5b828204905092915050565b6000612f0482612f97565b9150612f0f83612f97565b925082821015612f2257612f216130c0565b5b828203905092915050565b6000612f3882612f77565b9050919050565b60008115159050919050565b60007fffffffff0000000000000000000000000000000000000000000000000000000082169050919050565b600073ffffffffffffffffffffffffffffffffffffffff82169050919050565b6000819050919050565b82818337600083830152505050565b60005b83811015612fce578082015181840152602081019050612fb3565b83811115612fdd576000848401525b50505050565b60006002820490506001821680612ffb57607f821691505b6020821081141561300f5761300e61311e565b5b50919050565b61301e8261317c565b810181811067ffffffffffffffff8211171561303d5761303c61314d565b5b80604052505050565b600061305182612f97565b91507fffffffffffffffffffffffffffffffffffffffffffffffffffffffffffffffff821415613084576130836130c0565b5b600182019050919050565b600061309a82612f97565b91506130a583612f97565b9250826130b5576130b46130ef565b5b828206905092915050565b7f4e487b7100000000000000000000000000000000000000000000000000000000600052601160045260246000fd5b7f4e487b7100000000000000000000000000000000000000000000000000000000600052601260045260246000fd5b7f4e487b7100000000000000000000000000000000000000000000000000000000600052602260045260246000fd5b7f4e487b7100000000000000000000000000000000000000000000000000000000600052604160045260246000fd5b6000601f19601f8301169050919050565b7f455243373231456e756d657261626c653a206f776e657220696e646578206f7560008201527f74206f6620626f756e6473000000000000000000000000000000000000000000602082015250565b7f4552433732313a207472616e7366657220746f206e6f6e20455243373231526560008201527f63656976657220696d706c656d656e7465720000000000000000000000000000602082015250565b7f4f776e61626c653a206e6577206f776e657220697320746865207a65726f206160008201527f6464726573730000000000000000000000000000000000000000000000000000602082015250565b7f4552433732313a207472616e736665722066726f6d20696e636f72726563742060008201527f6f776e6572000000000000000000000000000000000000000000000000000000602082015250565b7f4552433732313a20746f6b656e20616c7265616479206d696e74656400000000600082015250565b7f4552433732313a207472616e7366657220746f20746865207a65726f2061646460008201527f7265737300000000000000000000000000000000000000000000000000000000602082015250565b7f4552433732313a20617070726f766520746f2063616c6c657200000000000000600082015250565b7f4552433732313a206f70657261746f7220717565727920666f72206e6f6e657860008201527f697374656e7420746f6b656e0000000000000000000000000000000000000000602082015250565b7f4552433732313a20617070726f76652063616c6c6572206973206e6f74206f7760008201527f6e6572206e6f7220617070726f76656420666f7220616c6c0000000000000000602082015250565b7f4552433732313a2062616c616e636520717565727920666f7220746865207a6560008201527f726f206164647265737300000000000000000000000000000000000000000000602082015250565b7f4552433732313a206f776e657220717565727920666f72206e6f6e657869737460008201527f656e7420746f6b656e0000000000000000000000000000000000000000000000602082015250565b7f45524337323155524953746f726167653a2055524920736574206f66206e6f6e60008201527f6578697374656e7420746f6b656e000000000000000000000000000000000000602082015250565b7f4552433732313a206d696e7420746f20746865207a65726f2061646472657373600082015250565b7f45524337323155524953746f726167653a2055524920717565727920666f722060008201527f6e6f6e6578697374656e7420746f6b656e000000000000000000000000000000602082015250565b7f4552433732313a20617070726f76656420717565727920666f72206e6f6e657860008201527f697374656e7420746f6b656e0000000000000000000000000000000000000000602082015250565b7f4f776e61626c653a2063616c6c6572206973206e6f7420746865206f776e6572600082015250565b7f4552433732314d657461646174613a2055524920717565727920666f72206e6f60008201527f6e6578697374656e7420746f6b656e0000000000000000000000000000000000602082015250565b7f4552433732313a20617070726f76616c20746f2063757272656e74206f776e6560008201527f7200000000000000000000000000000000000000000000000000000000000000602082015250565b7f4552433732313a207472616e736665722063616c6c6572206973206e6f74206f60008201527f776e6572206e6f7220617070726f766564000000000000000000000000000000602082015250565b7f455243373231456e756d657261626c653a20676c6f62616c20696e646578206f60008201527f7574206f6620626f756e64730000000000000000000000000000000000000000602082015250565b61372a81612f2d565b811461373557600080fd5b50565b61374181612f3f565b811461374c57600080fd5b50565b61375881612f4b565b811461376357600080fd5b50565b61376f81612f97565b811461377a57600080fd5b5056fea2646970667358221220a357e906cd4d2bde6e1d709c862fd76b4abf5993cd4f25558b467619b9c19bbf64736f6c63430008040033",
  "linkReferences": {},
  "deployedLinkReferences": {}
}