{
  "_format": "hh-sol-artifact-1",
  "contractName": "MyNftMarket",
  "sourceName": "contracts/MyNftMarket.sol",
  "abi": [
    {
      "inputs": [
        {
          "internalType": "uint256",
          "name": "listingId",
          "type": "uint256"
        }
      ],
      "name": "buyToken",
      "outputs": [],
      "stateMutability": "payable",
      "type": "function"
    },
    {
      "inputs": [
        {
          "internalType": "uint256",
          "name": "listingId",
          "type": "uint256"
        }
      ],
      "name": "getListing",
      "outputs": [
        {
          "components": [
            {
              "internalType": "address payable",
              "name": "seller",
              "type": "address"
            },
            {
              "internalType": "address payable",
              "name": "owner",
              "type": "address"
            },
            {
              "internalType": "address",
              "name": "token",
              "type": "address"
            },
            {
              "internalType": "uint256",
              "name": "tokenId",
              "type": "uint256"
            },
            {
              "internalType": "uint256",
              "name": "price",
              "type": "uint256"
            },
            {
              "internalType": "bool",
              "name": "sold",
              "type": "bool"
            }
          ],
          "internalType": "struct MyNftMarket.Listing",
          "name": "",
          "type": "tuple"
        }
      ],
      "stateMutability": "view",
      "type": "function"
    },
    {
      "inputs": [],
      "name": "getListingLength",
      "outputs": [
        {
          "internalType": "uint256",
          "name": "",
          "type": "uint256"
        }
      ],
      "stateMutability": "view",
      "type": "function"
    },
    {
      "inputs": [
        {
          "internalType": "address",
          "name": "token",
          "type": "address"
        },
        {
          "internalType": "uint256",
          "name": "tokenId",
          "type": "uint256"
        },
        {
          "internalType": "uint256",
          "name": "price",
          "type": "uint256"
        }
      ],
      "name": "listToken",
      "outputs": [],
      "stateMutability": "nonpayable",
      "type": "function"
    }
  ],
  "bytecode": "0x60806040526000805534801561001457600080fd5b50610ac3806100246000396000f3fe60806040526004361061003f5760003560e01c8063107a274a146100445780632d296bf114610081578063394e197c1461009d5780637e07590d146100c8575b600080fd5b34801561005057600080fd5b5061006b6004803603810190610066919061074b565b6100f1565b60405161007891906108c3565b60405180910390f35b61009b6004803603810190610096919061074b565b61024f565b005b3480156100a957600080fd5b506100b261042b565b6040516100bf91906108de565b60405180910390f35b3480156100d457600080fd5b506100ef60048036038101906100ea91906106fc565b610434565b005b6100f9610658565b600160008381526020019081526020016000206040518060c00160405290816000820160009054906101000a900473ffffffffffffffffffffffffffffffffffffffff1673ffffffffffffffffffffffffffffffffffffffff1673ffffffffffffffffffffffffffffffffffffffff1681526020016001820160009054906101000a900473ffffffffffffffffffffffffffffffffffffffff1673ffffffffffffffffffffffffffffffffffffffff1673ffffffffffffffffffffffffffffffffffffffff1681526020016002820160009054906101000a900473ffffffffffffffffffffffffffffffffffffffff1673ffffffffffffffffffffffffffffffffffffffff1673ffffffffffffffffffffffffffffffffffffffff16815260200160038201548152602001600482015481526020016005820160009054906101000a900460ff1615151515815250509050919050565b6000600160008381526020019081526020016000209050806004015434146102ac576040517f08c379a00000000000000000000000000000000000000000000000000000000081526004016102a3906108a3565b60405180910390fd5b8060020160009054906101000a900473ffffffffffffffffffffffffffffffffffffffff1673ffffffffffffffffffffffffffffffffffffffff166323b872dd303384600301546040518463ffffffff1660e01b81526004016103119392919061086c565b600060405180830381600087803b15801561032b57600080fd5b505af115801561033f573d6000803e3d6000fd5b505050508060000160009054906101000a900473ffffffffffffffffffffffffffffffffffffffff1673ffffffffffffffffffffffffffffffffffffffff166108fc349081150290604051600060405180830381858888f193505050501580156103ad573d6000803e3d6000fd5b5060018160050160006101000a81548160ff021916908315150217905550600281600401546103dc919061090a565b8160040181905550338160010160006101000a81548173ffffffffffffffffffffffffffffffffffffffff021916908373ffffffffffffffffffffffffffffffffffffffff1602179055505050565b60008054905090565b8273ffffffffffffffffffffffffffffffffffffffff166323b872dd3330856040518463ffffffff1660e01b81526004016104719392919061086c565b600060405180830381600087803b15801561048b57600080fd5b505af115801561049f573d6000803e3d6000fd5b5050505060006040518060c001604052803373ffffffffffffffffffffffffffffffffffffffff168152602001600073ffffffffffffffffffffffffffffffffffffffff1681526020018573ffffffffffffffffffffffffffffffffffffffff16815260200184815260200183815260200160001515815250905080600160008054815260200190815260200160002060008201518160000160006101000a81548173ffffffffffffffffffffffffffffffffffffffff021916908373ffffffffffffffffffffffffffffffffffffffff16021790555060208201518160010160006101000a81548173ffffffffffffffffffffffffffffffffffffffff021916908373ffffffffffffffffffffffffffffffffffffffff16021790555060408201518160020160006101000a81548173ffffffffffffffffffffffffffffffffffffffff021916908373ffffffffffffffffffffffffffffffffffffffff160217905550606082015181600301556080820151816004015560a08201518160050160006101000a81548160ff02191690831515021790555090505060008081548092919061064d906109be565b919050555050505050565b6040518060c00160405280600073ffffffffffffffffffffffffffffffffffffffff168152602001600073ffffffffffffffffffffffffffffffffffffffff168152602001600073ffffffffffffffffffffffffffffffffffffffff16815260200160008152602001600081526020016000151581525090565b6000813590506106e181610a5f565b92915050565b6000813590506106f681610a76565b92915050565b60008060006060848603121561071157600080fd5b600061071f868287016106d2565b9350506020610730868287016106e7565b9250506040610741868287016106e7565b9150509250925092565b60006020828403121561075d57600080fd5b600061076b848285016106e7565b91505092915050565b61077d81610976565b82525050565b61078c81610964565b82525050565b61079b81610964565b82525050565b6107aa81610988565b82525050565b60006107bd6014836108f9565b91506107c882610a36565b602082019050919050565b60c0820160008201516107e96000850182610774565b5060208201516107fc6020850182610774565b50604082015161080f6040850182610783565b506060820151610822606085018261084e565b506080820151610835608085018261084e565b5060a082015161084860a08501826107a1565b50505050565b610857816109b4565b82525050565b610866816109b4565b82525050565b60006060820190506108816000830186610792565b61088e6020830185610792565b61089b604083018461085d565b949350505050565b600060208201905081810360008301526108bc816107b0565b9050919050565b600060c0820190506108d860008301846107d3565b92915050565b60006020820190506108f3600083018461085d565b92915050565b600082825260208201905092915050565b6000610915826109b4565b9150610920836109b4565b9250817fffffffffffffffffffffffffffffffffffffffffffffffffffffffffffffffff048311821515161561095957610958610a07565b5b828202905092915050565b600061096f82610994565b9050919050565b600061098182610994565b9050919050565b60008115159050919050565b600073ffffffffffffffffffffffffffffffffffffffff82169050919050565b6000819050919050565b60006109c9826109b4565b91507fffffffffffffffffffffffffffffffffffffffffffffffffffffffffffffffff8214156109fc576109fb610a07565b5b600182019050919050565b7f4e487b7100000000000000000000000000000000000000000000000000000000600052601160045260246000fd5b7f496e73756666696369656e74207061796d656e74000000000000000000000000600082015250565b610a6881610964565b8114610a7357600080fd5b50565b610a7f816109b4565b8114610a8a57600080fd5b5056fea264697066735822122044bbdd020803c9e0298cbbb435d95ca05aec3666a6a28712212228f35f64d5db64736f6c63430008040033",
  "linkReferences": {},
  "deployedLinkReferences": {}
}